{
  "contractName": "Color",
  "abi": [
    {
      "inputs": [],
      "stateMutability": "nonpayable",
      "type": "constructor"
    },
    {
      "anonymous": false,
      "inputs": [
        {
          "indexed": true,
          "internalType": "address",
          "name": "owner",
          "type": "address"
        },
        {
          "indexed": true,
          "internalType": "address",
          "name": "approved",
          "type": "address"
        },
        {
          "indexed": true,
          "internalType": "uint256",
          "name": "tokenId",
          "type": "uint256"
        }
      ],
      "name": "Approval",
      "type": "event"
    },
    {
      "anonymous": false,
      "inputs": [
        {
          "indexed": true,
          "internalType": "address",
          "name": "owner",
          "type": "address"
        },
        {
          "indexed": true,
          "internalType": "address",
          "name": "operator",
          "type": "address"
        },
        {
          "indexed": false,
          "internalType": "bool",
          "name": "approved",
          "type": "bool"
        }
      ],
      "name": "ApprovalForAll",
      "type": "event"
    },
    {
      "anonymous": false,
      "inputs": [
        {
          "indexed": true,
          "internalType": "address",
          "name": "from",
          "type": "address"
        },
        {
          "indexed": true,
          "internalType": "address",
          "name": "to",
          "type": "address"
        },
        {
          "indexed": true,
          "internalType": "uint256",
          "name": "tokenId",
          "type": "uint256"
        }
      ],
      "name": "Transfer",
      "type": "event"
    },
    {
      "inputs": [
        {
          "internalType": "address",
          "name": "to",
          "type": "address"
        },
        {
          "internalType": "uint256",
          "name": "tokenId",
          "type": "uint256"
        }
      ],
      "name": "approve",
      "outputs": [],
      "stateMutability": "nonpayable",
      "type": "function"
    },
    {
      "inputs": [
        {
          "internalType": "address",
          "name": "owner",
          "type": "address"
        }
      ],
      "name": "balanceOf",
      "outputs": [
        {
          "internalType": "uint256",
          "name": "",
          "type": "uint256"
        }
      ],
      "stateMutability": "view",
      "type": "function",
      "constant": true
    },
    {
      "inputs": [
        {
          "internalType": "uint256",
          "name": "tokenId",
          "type": "uint256"
        }
      ],
      "name": "getApproved",
      "outputs": [
        {
          "internalType": "address",
          "name": "",
          "type": "address"
        }
      ],
      "stateMutability": "view",
      "type": "function",
      "constant": true
    },
    {
      "inputs": [
        {
          "internalType": "address",
          "name": "owner",
          "type": "address"
        },
        {
          "internalType": "address",
          "name": "operator",
          "type": "address"
        }
      ],
      "name": "isApprovedForAll",
      "outputs": [
        {
          "internalType": "bool",
          "name": "",
          "type": "bool"
        }
      ],
      "stateMutability": "view",
      "type": "function",
      "constant": true
    },
    {
      "inputs": [
        {
          "internalType": "uint256",
          "name": "",
          "type": "uint256"
        }
      ],
      "name": "mintedColors",
      "outputs": [
        {
          "internalType": "string",
          "name": "",
          "type": "string"
        }
      ],
      "stateMutability": "view",
      "type": "function",
      "constant": true
    },
    {
      "inputs": [],
      "name": "name",
      "outputs": [
        {
          "internalType": "string",
          "name": "",
          "type": "string"
        }
      ],
      "stateMutability": "view",
      "type": "function",
      "constant": true
    },
    {
      "inputs": [
        {
          "internalType": "uint256",
          "name": "tokenId",
          "type": "uint256"
        }
      ],
      "name": "ownerOf",
      "outputs": [
        {
          "internalType": "address",
          "name": "",
          "type": "address"
        }
      ],
      "stateMutability": "view",
      "type": "function",
      "constant": true
    },
    {
      "inputs": [
        {
          "internalType": "address",
          "name": "from",
          "type": "address"
        },
        {
          "internalType": "address",
          "name": "to",
          "type": "address"
        },
        {
          "internalType": "uint256",
          "name": "tokenId",
          "type": "uint256"
        }
      ],
      "name": "safeTransferFrom",
      "outputs": [],
      "stateMutability": "nonpayable",
      "type": "function"
    },
    {
      "inputs": [
        {
          "internalType": "address",
          "name": "from",
          "type": "address"
        },
        {
          "internalType": "address",
          "name": "to",
          "type": "address"
        },
        {
          "internalType": "uint256",
          "name": "tokenId",
          "type": "uint256"
        },
        {
          "internalType": "bytes",
          "name": "_data",
          "type": "bytes"
        }
      ],
      "name": "safeTransferFrom",
      "outputs": [],
      "stateMutability": "nonpayable",
      "type": "function"
    },
    {
      "inputs": [
        {
          "internalType": "address",
          "name": "operator",
          "type": "address"
        },
        {
          "internalType": "bool",
          "name": "approved",
          "type": "bool"
        }
      ],
      "name": "setApprovalForAll",
      "outputs": [],
      "stateMutability": "nonpayable",
      "type": "function"
    },
    {
      "inputs": [
        {
          "internalType": "bytes4",
          "name": "interfaceId",
          "type": "bytes4"
        }
      ],
      "name": "supportsInterface",
      "outputs": [
        {
          "internalType": "bool",
          "name": "",
          "type": "bool"
        }
      ],
      "stateMutability": "view",
      "type": "function",
      "constant": true
    },
    {
      "inputs": [],
      "name": "symbol",
      "outputs": [
        {
          "internalType": "string",
          "name": "",
          "type": "string"
        }
      ],
      "stateMutability": "view",
      "type": "function",
      "constant": true
    },
    {
      "inputs": [
        {
          "internalType": "uint256",
          "name": "index",
          "type": "uint256"
        }
      ],
      "name": "tokenByIndex",
      "outputs": [
        {
          "internalType": "uint256",
          "name": "",
          "type": "uint256"
        }
      ],
      "stateMutability": "view",
      "type": "function",
      "constant": true
    },
    {
      "inputs": [
        {
          "internalType": "address",
          "name": "owner",
          "type": "address"
        },
        {
          "internalType": "uint256",
          "name": "index",
          "type": "uint256"
        }
      ],
      "name": "tokenOfOwnerByIndex",
      "outputs": [
        {
          "internalType": "uint256",
          "name": "",
          "type": "uint256"
        }
      ],
      "stateMutability": "view",
      "type": "function",
      "constant": true
    },
    {
      "inputs": [
        {
          "internalType": "uint256",
          "name": "tokenId",
          "type": "uint256"
        }
      ],
      "name": "tokenURI",
      "outputs": [
        {
          "internalType": "string",
          "name": "",
          "type": "string"
        }
      ],
      "stateMutability": "view",
      "type": "function",
      "constant": true
    },
    {
      "inputs": [],
      "name": "totalSupply",
      "outputs": [
        {
          "internalType": "uint256",
          "name": "",
          "type": "uint256"
        }
      ],
      "stateMutability": "view",
      "type": "function",
      "constant": true
    },
    {
      "inputs": [
        {
          "internalType": "address",
          "name": "from",
          "type": "address"
        },
        {
          "internalType": "address",
          "name": "to",
          "type": "address"
        },
        {
          "internalType": "uint256",
          "name": "tokenId",
          "type": "uint256"
        }
      ],
      "name": "transferFrom",
      "outputs": [],
      "stateMutability": "nonpayable",
      "type": "function"
    },
    {
      "inputs": [
        {
          "internalType": "string",
          "name": "_color",
          "type": "string"
        }
      ],
      "name": "mint",
      "outputs": [],
      "stateMutability": "nonpayable",
      "type": "function"
    },
    {
      "inputs": [],
      "name": "getMintedColors",
      "outputs": [
        {
          "internalType": "string[]",
          "name": "",
          "type": "string[]"
        }
      ],
      "stateMutability": "view",
      "type": "function",
      "constant": true
    }
  ],
  "bytecode": "0x60806040523480156200001157600080fd5b506040518060400160405280600d81526020017f556e6971756520436f6c6f7273000000000000000000000000000000000000008152506040518060400160405280600381526020017f55434f0000000000000000000000000000000000000000000000000000000000815250816000908051906020019062000096929190620000b8565b508060019080519060200190620000af929190620000b8565b505050620001cd565b828054620000c69062000168565b90600052602060002090601f016020900481019282620000ea576000855562000136565b82601f106200010557805160ff191683800117855562000136565b8280016001018555821562000136579182015b828111156200013557825182559160200191906001019062000118565b5b50905062000145919062000149565b5090565b5b80821115620001645760008160009055506001016200014a565b5090565b600060028204905060018216806200018157607f821691505b602082108114156200019857620001976200019e565b5b50919050565b7f4e487b7100000000000000000000000000000000000000000000000000000000600052602260045260246000fd5b6134ae80620001dd6000396000f3fe608060405234801561001057600080fd5b50600436106101215760003560e01c80634f6ccce7116100ad578063b88d4fde11610071578063b88d4fde1461032e578063c87b56dd1461034a578063d85d3d271461037a578063e2f7c36214610396578063e985e9c5146103c657610121565b80634f6ccce7146102645780636352211e1461029457806370a08231146102c457806395d89b41146102f4578063a22cb4651461031257610121565b806318160ddd116100f457806318160ddd146101c057806323b872dd146101de5780632f745c59146101fa5780633ec8ae511461022a57806342842e0e1461024857610121565b806301ffc9a71461012657806306fdde0314610156578063081812fc14610174578063095ea7b3146101a4575b600080fd5b610140600480360381019061013b9190612369565b6103f6565b60405161014d91906128ce565b60405180910390f35b61015e610470565b60405161016b91906128e9565b60405180910390f35b61018e600480360381019061018991906123fc565b610502565b60405161019b9190612845565b60405180910390f35b6101be60048036038101906101b9919061232d565b610587565b005b6101c861069f565b6040516101d59190612b2b565b60405180910390f35b6101f860048036038101906101f39190612227565b6106ac565b005b610214600480360381019061020f919061232d565b61070c565b6040516102219190612b2b565b60405180910390f35b6102326107b1565b60405161023f91906128ac565b60405180910390f35b610262600480360381019061025d9190612227565b61088a565b005b61027e600480360381019061027991906123fc565b6108aa565b60405161028b9190612b2b565b60405180910390f35b6102ae60048036038101906102a991906123fc565b610941565b6040516102bb9190612845565b60405180910390f35b6102de60048036038101906102d991906121c2565b6109f3565b6040516102eb9190612b2b565b60405180910390f35b6102fc610aab565b60405161030991906128e9565b60405180910390f35b61032c600480360381019061032791906122f1565b610b3d565b005b61034860048036038101906103439190612276565b610cbe565b005b610364600480360381019061035f91906123fc565b610d20565b60405161037191906128e9565b60405180910390f35b610394600480360381019061038f91906123bb565b610dc7565b005b6103b060048036038101906103ab91906123fc565b610eca565b6040516103bd91906128e9565b60405180910390f35b6103e060048036038101906103db91906121eb565b610f76565b6040516103ed91906128ce565b60405180910390f35b60007f780e9d63000000000000000000000000000000000000000000000000000000007bffffffffffffffffffffffffffffffffffffffffffffffffffffffff1916827bffffffffffffffffffffffffffffffffffffffffffffffffffffffff1916148061046957506104688261100a565b5b9050919050565b60606000805461047f90612dcb565b80601f01602080910402602001604051908101604052809291908181526020018280546104ab90612dcb565b80156104f85780601f106104cd576101008083540402835291602001916104f8565b820191906000526020600020905b8154815290600101906020018083116104db57829003601f168201915b5050505050905090565b600061050d826110ec565b61054c576040517f08c379a000000000000000000000000000000000000000000000000000000000815260040161054390612a6b565b60405180910390fd5b6004600083815260200190815260200160002060009054906101000a900473ffffffffffffffffffffffffffffffffffffffff169050919050565b600061059282610941565b90508073ffffffffffffffffffffffffffffffffffffffff168373ffffffffffffffffffffffffffffffffffffffff161415610603576040517f08c379a00000000000000000000000000000000000000000000000000000000081526004016105fa90612acb565b60405180910390fd5b8073ffffffffffffffffffffffffffffffffffffffff16610622611158565b73ffffffffffffffffffffffffffffffffffffffff16148061065157506106508161064b611158565b610f76565b5b610690576040517f08c379a0000000000000000000000000000000000000000000000000000000008152600401610687906129eb565b60405180910390fd5b61069a8383611160565b505050565b6000600880549050905090565b6106bd6106b7611158565b82611219565b6106fc576040517f08c379a00000000000000000000000000000000000000000000000000000000081526004016106f390612aeb565b60405180910390fd5b6107078383836112f7565b505050565b6000610717836109f3565b8210610758576040517f08c379a000000000000000000000000000000000000000000000000000000000815260040161074f9061290b565b60405180910390fd5b600660008473ffffffffffffffffffffffffffffffffffffffff1673ffffffffffffffffffffffffffffffffffffffff168152602001908152602001600020600083815260200190815260200160002054905092915050565b6060600a805480602002602001604051908101604052809291908181526020016000905b828210156108815783829060005260206000200180546107f490612dcb565b80601f016020809104026020016040519081016040528092919081815260200182805461082090612dcb565b801561086d5780601f106108425761010080835404028352916020019161086d565b820191906000526020600020905b81548152906001019060200180831161085057829003601f168201915b5050505050815260200190600101906107d5565b50505050905090565b6108a583838360405180602001604052806000815250610cbe565b505050565b60006108b461069f565b82106108f5576040517f08c379a00000000000000000000000000000000000000000000000000000000081526004016108ec90612b0b565b60405180910390fd5b6008828154811061092f577f4e487b7100000000000000000000000000000000000000000000000000000000600052603260045260246000fd5b90600052602060002001549050919050565b6000806002600084815260200190815260200160002060009054906101000a900473ffffffffffffffffffffffffffffffffffffffff169050600073ffffffffffffffffffffffffffffffffffffffff168173ffffffffffffffffffffffffffffffffffffffff1614156109ea576040517f08c379a00000000000000000000000000000000000000000000000000000000081526004016109e190612a2b565b60405180910390fd5b80915050919050565b60008073ffffffffffffffffffffffffffffffffffffffff168273ffffffffffffffffffffffffffffffffffffffff161415610a64576040517f08c379a0000000000000000000000000000000000000000000000000000000008152600401610a5b90612a0b565b60405180910390fd5b600360008373ffffffffffffffffffffffffffffffffffffffff1673ffffffffffffffffffffffffffffffffffffffff168152602001908152602001600020549050919050565b606060018054610aba90612dcb565b80601f0160208091040260200160405190810160405280929190818152602001828054610ae690612dcb565b8015610b335780601f10610b0857610100808354040283529160200191610b33565b820191906000526020600020905b815481529060010190602001808311610b1657829003601f168201915b5050505050905090565b610b45611158565b73ffffffffffffffffffffffffffffffffffffffff168273ffffffffffffffffffffffffffffffffffffffff161415610bb3576040517f08c379a0000000000000000000000000000000000000000000000000000000008152600401610baa906129ab565b60405180910390fd5b8060056000610bc0611158565b73ffffffffffffffffffffffffffffffffffffffff1673ffffffffffffffffffffffffffffffffffffffff16815260200190815260200160002060008473ffffffffffffffffffffffffffffffffffffffff1673ffffffffffffffffffffffffffffffffffffffff16815260200190815260200160002060006101000a81548160ff0219169083151502179055508173ffffffffffffffffffffffffffffffffffffffff16610c6d611158565b73ffffffffffffffffffffffffffffffffffffffff167f17307eab39ab6107e8899845ad3d59bd9653f200f220920489ca2b5937696c3183604051610cb291906128ce565b60405180910390a35050565b610ccf610cc9611158565b83611219565b610d0e576040517f08c379a0000000000000000000000000000000000000000000000000000000008152600401610d0590612aeb565b60405180910390fd5b610d1a84848484611553565b50505050565b6060610d2b826110ec565b610d6a576040517f08c379a0000000000000000000000000000000000000000000000000000000008152600401610d6190612aab565b60405180910390fd5b6000610d746115af565b90506000815111610d945760405180602001604052806000815250610dbf565b80610d9e846115c6565b604051602001610daf929190612821565b6040516020818303038152906040525b915050919050565b600b81604051610dd7919061280a565b908152602001604051809103902060009054906101000a900460ff1615610e33576040517f08c379a0000000000000000000000000000000000000000000000000000000008152600401610e2a9061296b565b60405180910390fd5b600a81908060018154018082558091505060019003906000526020600020016000909190919091509080519060200190610e6e929190611fe6565b5060006001600a80549050610e839190612ce1565b9050610e8f3382611773565b6001600b83604051610ea1919061280a565b908152602001604051809103902060006101000a81548160ff0219169083151502179055505050565b600a8181548110610eda57600080fd5b906000526020600020016000915090508054610ef590612dcb565b80601f0160208091040260200160405190810160405280929190818152602001828054610f2190612dcb565b8015610f6e5780601f10610f4357610100808354040283529160200191610f6e565b820191906000526020600020905b815481529060010190602001808311610f5157829003601f168201915b505050505081565b6000600560008473ffffffffffffffffffffffffffffffffffffffff1673ffffffffffffffffffffffffffffffffffffffff16815260200190815260200160002060008373ffffffffffffffffffffffffffffffffffffffff1673ffffffffffffffffffffffffffffffffffffffff16815260200190815260200160002060009054906101000a900460ff16905092915050565b60007f80ac58cd000000000000000000000000000000000000000000000000000000007bffffffffffffffffffffffffffffffffffffffffffffffffffffffff1916827bffffffffffffffffffffffffffffffffffffffffffffffffffffffff191614806110d557507f5b5e139f000000000000000000000000000000000000000000000000000000007bffffffffffffffffffffffffffffffffffffffffffffffffffffffff1916827bffffffffffffffffffffffffffffffffffffffffffffffffffffffff1916145b806110e557506110e482611941565b5b9050919050565b60008073ffffffffffffffffffffffffffffffffffffffff166002600084815260200190815260200160002060009054906101000a900473ffffffffffffffffffffffffffffffffffffffff1673ffffffffffffffffffffffffffffffffffffffff1614159050919050565b600033905090565b816004600083815260200190815260200160002060006101000a81548173ffffffffffffffffffffffffffffffffffffffff021916908373ffffffffffffffffffffffffffffffffffffffff160217905550808273ffffffffffffffffffffffffffffffffffffffff166111d383610941565b73ffffffffffffffffffffffffffffffffffffffff167f8c5be1e5ebec7d5bd14f71427d1e84f3dd0314c0f7b2291e5b200ac8c7c3b92560405160405180910390a45050565b6000611224826110ec565b611263576040517f08c379a000000000000000000000000000000000000000000000000000000000815260040161125a906129cb565b60405180910390fd5b600061126e83610941565b90508073ffffffffffffffffffffffffffffffffffffffff168473ffffffffffffffffffffffffffffffffffffffff1614806112dd57508373ffffffffffffffffffffffffffffffffffffffff166112c584610502565b73ffffffffffffffffffffffffffffffffffffffff16145b806112ee57506112ed8185610f76565b5b91505092915050565b8273ffffffffffffffffffffffffffffffffffffffff1661131782610941565b73ffffffffffffffffffffffffffffffffffffffff161461136d576040517f08c379a000000000000000000000000000000000000000000000000000000000815260040161136490612a8b565b60405180910390fd5b600073ffffffffffffffffffffffffffffffffffffffff168273ffffffffffffffffffffffffffffffffffffffff1614156113dd576040517f08c379a00000000000000000000000000000000000000000000000000000000081526004016113d49061298b565b60405180910390fd5b6113e88383836119ab565b6113f3600082611160565b6001600360008573ffffffffffffffffffffffffffffffffffffffff1673ffffffffffffffffffffffffffffffffffffffff16815260200190815260200160002060008282546114439190612ce1565b925050819055506001600360008473ffffffffffffffffffffffffffffffffffffffff1673ffffffffffffffffffffffffffffffffffffffff168152602001908152602001600020600082825461149a9190612c5a565b92505081905550816002600083815260200190815260200160002060006101000a81548173ffffffffffffffffffffffffffffffffffffffff021916908373ffffffffffffffffffffffffffffffffffffffff160217905550808273ffffffffffffffffffffffffffffffffffffffff168473ffffffffffffffffffffffffffffffffffffffff167fddf252ad1be2c89b69c2b068fc378daa952ba7f163c4a11628f55a4df523b3ef60405160405180910390a4505050565b61155e8484846112f7565b61156a84848484611abf565b6115a9576040517f08c379a00000000000000000000000000000000000000000000000000000000081526004016115a09061292b565b60405180910390fd5b50505050565b606060405180602001604052806000815250905090565b6060600082141561160e576040518060400160405280600181526020017f3000000000000000000000000000000000000000000000000000000000000000815250905061176e565b600082905060005b6000821461164057808061162990612e2e565b915050600a826116399190612cb0565b9150611616565b60008167ffffffffffffffff811115611682577f4e487b7100000000000000000000000000000000000000000000000000000000600052604160045260246000fd5b6040519080825280601f01601f1916602001820160405280156116b45781602001600182028036833780820191505090505b5090505b60008514611767576001826116cd9190612ce1565b9150600a856116dc9190612e77565b60306116e89190612c5a565b60f81b818381518110611724577f4e487b7100000000000000000000000000000000000000000000000000000000600052603260045260246000fd5b60200101907effffffffffffffffffffffffffffffffffffffffffffffffffffffffffffff1916908160001a905350600a856117609190612cb0565b94506116b8565b8093505050505b919050565b600073ffffffffffffffffffffffffffffffffffffffff168273ffffffffffffffffffffffffffffffffffffffff1614156117e3576040517f08c379a00000000000000000000000000000000000000000000000000000000081526004016117da90612a4b565b60405180910390fd5b6117ec816110ec565b1561182c576040517f08c379a00000000000000000000000000000000000000000000000000000000081526004016118239061294b565b60405180910390fd5b611838600083836119ab565b6001600360008473ffffffffffffffffffffffffffffffffffffffff1673ffffffffffffffffffffffffffffffffffffffff16815260200190815260200160002060008282546118889190612c5a565b92505081905550816002600083815260200190815260200160002060006101000a81548173ffffffffffffffffffffffffffffffffffffffff021916908373ffffffffffffffffffffffffffffffffffffffff160217905550808273ffffffffffffffffffffffffffffffffffffffff16600073ffffffffffffffffffffffffffffffffffffffff167fddf252ad1be2c89b69c2b068fc378daa952ba7f163c4a11628f55a4df523b3ef60405160405180910390a45050565b60007f01ffc9a7000000000000000000000000000000000000000000000000000000007bffffffffffffffffffffffffffffffffffffffffffffffffffffffff1916827bffffffffffffffffffffffffffffffffffffffffffffffffffffffff1916149050919050565b6119b6838383611c56565b600073ffffffffffffffffffffffffffffffffffffffff168373ffffffffffffffffffffffffffffffffffffffff1614156119f9576119f481611c5b565b611a38565b8173ffffffffffffffffffffffffffffffffffffffff168373ffffffffffffffffffffffffffffffffffffffff1614611a3757611a368382611ca4565b5b5b600073ffffffffffffffffffffffffffffffffffffffff168273ffffffffffffffffffffffffffffffffffffffff161415611a7b57611a7681611e11565b611aba565b8273ffffffffffffffffffffffffffffffffffffffff168273ffffffffffffffffffffffffffffffffffffffff1614611ab957611ab88282611f54565b5b5b505050565b6000611ae08473ffffffffffffffffffffffffffffffffffffffff16611fd3565b15611c49578373ffffffffffffffffffffffffffffffffffffffff1663150b7a02611b09611158565b8786866040518563ffffffff1660e01b8152600401611b2b9493929190612860565b602060405180830381600087803b158015611b4557600080fd5b505af1925050508015611b7657506040513d601f19601f82011682018060405250810190611b739190612392565b60015b611bf9573d8060008114611ba6576040519150601f19603f3d011682016040523d82523d6000602084013e611bab565b606091505b50600081511415611bf1576040517f08c379a0000000000000000000000000000000000000000000000000000000008152600401611be89061292b565b60405180910390fd5b805181602001fd5b63150b7a0260e01b7bffffffffffffffffffffffffffffffffffffffffffffffffffffffff1916817bffffffffffffffffffffffffffffffffffffffffffffffffffffffff191614915050611c4e565b600190505b949350505050565b505050565b6008805490506009600083815260200190815260200160002081905550600881908060018154018082558091505060019003906000526020600020016000909190919091505550565b60006001611cb1846109f3565b611cbb9190612ce1565b9050600060076000848152602001908152602001600020549050818114611da0576000600660008673ffffffffffffffffffffffffffffffffffffffff1673ffffffffffffffffffffffffffffffffffffffff168152602001908152602001600020600084815260200190815260200160002054905080600660008773ffffffffffffffffffffffffffffffffffffffff1673ffffffffffffffffffffffffffffffffffffffff168152602001908152602001600020600084815260200190815260200160002081905550816007600083815260200190815260200160002081905550505b6007600084815260200190815260200160002060009055600660008573ffffffffffffffffffffffffffffffffffffffff1673ffffffffffffffffffffffffffffffffffffffff16815260200190815260200160002060008381526020019081526020016000206000905550505050565b60006001600880549050611e259190612ce1565b9050600060096000848152602001908152602001600020549050600060088381548110611e7b577f4e487b7100000000000000000000000000000000000000000000000000000000600052603260045260246000fd5b906000526020600020015490508060088381548110611ec3577f4e487b7100000000000000000000000000000000000000000000000000000000600052603260045260246000fd5b906000526020600020018190555081600960008381526020019081526020016000208190555060096000858152602001908152602001600020600090556008805480611f38577f4e487b7100000000000000000000000000000000000000000000000000000000600052603160045260246000fd5b6001900381819060005260206000200160009055905550505050565b6000611f5f836109f3565b905081600660008573ffffffffffffffffffffffffffffffffffffffff1673ffffffffffffffffffffffffffffffffffffffff168152602001908152602001600020600083815260200190815260200160002081905550806007600084815260200190815260200160002081905550505050565b600080823b905060008111915050919050565b828054611ff290612dcb565b90600052602060002090601f016020900481019282612014576000855561205b565b82601f1061202d57805160ff191683800117855561205b565b8280016001018555821561205b579182015b8281111561205a57825182559160200191906001019061203f565b5b509050612068919061206c565b5090565b5b8082111561208557600081600090555060010161206d565b5090565b600061209c61209784612b6b565b612b46565b9050828152602081018484840111156120b457600080fd5b6120bf848285612d89565b509392505050565b60006120da6120d584612b9c565b612b46565b9050828152602081018484840111156120f257600080fd5b6120fd848285612d89565b509392505050565b6000813590506121148161341c565b92915050565b60008135905061212981613433565b92915050565b60008135905061213e8161344a565b92915050565b6000815190506121538161344a565b92915050565b600082601f83011261216a57600080fd5b813561217a848260208601612089565b91505092915050565b600082601f83011261219457600080fd5b81356121a48482602086016120c7565b91505092915050565b6000813590506121bc81613461565b92915050565b6000602082840312156121d457600080fd5b60006121e284828501612105565b91505092915050565b600080604083850312156121fe57600080fd5b600061220c85828601612105565b925050602061221d85828601612105565b9150509250929050565b60008060006060848603121561223c57600080fd5b600061224a86828701612105565b935050602061225b86828701612105565b925050604061226c868287016121ad565b9150509250925092565b6000806000806080858703121561228c57600080fd5b600061229a87828801612105565b94505060206122ab87828801612105565b93505060406122bc878288016121ad565b925050606085013567ffffffffffffffff8111156122d957600080fd5b6122e587828801612159565b91505092959194509250565b6000806040838503121561230457600080fd5b600061231285828601612105565b92505060206123238582860161211a565b9150509250929050565b6000806040838503121561234057600080fd5b600061234e85828601612105565b925050602061235f858286016121ad565b9150509250929050565b60006020828403121561237b57600080fd5b60006123898482850161212f565b91505092915050565b6000602082840312156123a457600080fd5b60006123b284828501612144565b91505092915050565b6000602082840312156123cd57600080fd5b600082013567ffffffffffffffff8111156123e757600080fd5b6123f384828501612183565b91505092915050565b60006020828403121561240e57600080fd5b600061241c848285016121ad565b91505092915050565b60006124318383612505565b905092915050565b61244281612d15565b82525050565b600061245382612bdd565b61245d8185612c0b565b93508360208202850161246f85612bcd565b8060005b858110156124ab578484038952815161248c8582612425565b945061249783612bfe565b925060208a01995050600181019050612473565b50829750879550505050505092915050565b6124c681612d27565b82525050565b60006124d782612be8565b6124e18185612c1c565b93506124f1818560208601612d98565b6124fa81612f64565b840191505092915050565b600061251082612bf3565b61251a8185612c2d565b935061252a818560208601612d98565b61253381612f64565b840191505092915050565b600061254982612bf3565b6125538185612c3e565b9350612563818560208601612d98565b61256c81612f64565b840191505092915050565b600061258282612bf3565b61258c8185612c4f565b935061259c818560208601612d98565b80840191505092915050565b60006125b5602b83612c3e565b91506125c082612f75565b604082019050919050565b60006125d8603283612c3e565b91506125e382612fc4565b604082019050919050565b60006125fb601c83612c3e565b915061260682613013565b602082019050919050565b600061261e601583612c3e565b91506126298261303c565b602082019050919050565b6000612641602483612c3e565b915061264c82613065565b604082019050919050565b6000612664601983612c3e565b915061266f826130b4565b602082019050919050565b6000612687602c83612c3e565b9150612692826130dd565b604082019050919050565b60006126aa603883612c3e565b91506126b58261312c565b604082019050919050565b60006126cd602a83612c3e565b91506126d88261317b565b604082019050919050565b60006126f0602983612c3e565b91506126fb826131ca565b604082019050919050565b6000612713602083612c3e565b915061271e82613219565b602082019050919050565b6000612736602c83612c3e565b915061274182613242565b604082019050919050565b6000612759602983612c3e565b915061276482613291565b604082019050919050565b600061277c602f83612c3e565b9150612787826132e0565b604082019050919050565b600061279f602183612c3e565b91506127aa8261332f565b604082019050919050565b60006127c2603183612c3e565b91506127cd8261337e565b604082019050919050565b60006127e5602c83612c3e565b91506127f0826133cd565b604082019050919050565b61280481612d7f565b82525050565b60006128168284612577565b915081905092915050565b600061282d8285612577565b91506128398284612577565b91508190509392505050565b600060208201905061285a6000830184612439565b92915050565b60006080820190506128756000830187612439565b6128826020830186612439565b61288f60408301856127fb565b81810360608301526128a181846124cc565b905095945050505050565b600060208201905081810360008301526128c68184612448565b905092915050565b60006020820190506128e360008301846124bd565b92915050565b60006020820190508181036000830152612903818461253e565b905092915050565b60006020820190508181036000830152612924816125a8565b9050919050565b60006020820190508181036000830152612944816125cb565b9050919050565b60006020820190508181036000830152612964816125ee565b9050919050565b6000602082019050818103600083015261298481612611565b9050919050565b600060208201905081810360008301526129a481612634565b9050919050565b600060208201905081810360008301526129c481612657565b9050919050565b600060208201905081810360008301526129e48161267a565b9050919050565b60006020820190508181036000830152612a048161269d565b9050919050565b60006020820190508181036000830152612a24816126c0565b9050919050565b60006020820190508181036000830152612a44816126e3565b9050919050565b60006020820190508181036000830152612a6481612706565b9050919050565b60006020820190508181036000830152612a8481612729565b9050919050565b60006020820190508181036000830152612aa48161274c565b9050919050565b60006020820190508181036000830152612ac48161276f565b9050919050565b60006020820190508181036000830152612ae481612792565b9050919050565b60006020820190508181036000830152612b04816127b5565b9050919050565b60006020820190508181036000830152612b24816127d8565b9050919050565b6000602082019050612b4060008301846127fb565b92915050565b6000612b50612b61565b9050612b5c8282612dfd565b919050565b6000604051905090565b600067ffffffffffffffff821115612b8657612b85612f35565b5b612b8f82612f64565b9050602081019050919050565b600067ffffffffffffffff821115612bb757612bb6612f35565b5b612bc082612f64565b9050602081019050919050565b6000819050602082019050919050565b600081519050919050565b600081519050919050565b600081519050919050565b6000602082019050919050565b600082825260208201905092915050565b600082825260208201905092915050565b600082825260208201905092915050565b600082825260208201905092915050565b600081905092915050565b6000612c6582612d7f565b9150612c7083612d7f565b9250827fffffffffffffffffffffffffffffffffffffffffffffffffffffffffffffffff03821115612ca557612ca4612ea8565b5b828201905092915050565b6000612cbb82612d7f565b9150612cc683612d7f565b925082612cd657612cd5612ed7565b5b828204905092915050565b6000612cec82612d7f565b9150612cf783612d7f565b925082821015612d0a57612d09612ea8565b5b828203905092915050565b6000612d2082612d5f565b9050919050565b60008115159050919050565b60007fffffffff0000000000000000000000000000000000000000000000000000000082169050919050565b600073ffffffffffffffffffffffffffffffffffffffff82169050919050565b6000819050919050565b82818337600083830152505050565b60005b83811015612db6578082015181840152602081019050612d9b565b83811115612dc5576000848401525b50505050565b60006002820490506001821680612de357607f821691505b60208210811415612df757612df6612f06565b5b50919050565b612e0682612f64565b810181811067ffffffffffffffff82111715612e2557612e24612f35565b5b80604052505050565b6000612e3982612d7f565b91507fffffffffffffffffffffffffffffffffffffffffffffffffffffffffffffffff821415612e6c57612e6b612ea8565b5b600182019050919050565b6000612e8282612d7f565b9150612e8d83612d7f565b925082612e9d57612e9c612ed7565b5b828206905092915050565b7f4e487b7100000000000000000000000000000000000000000000000000000000600052601160045260246000fd5b7f4e487b7100000000000000000000000000000000000000000000000000000000600052601260045260246000fd5b7f4e487b7100000000000000000000000000000000000000000000000000000000600052602260045260246000fd5b7f4e487b7100000000000000000000000000000000000000000000000000000000600052604160045260246000fd5b6000601f19601f8301169050919050565b7f455243373231456e756d657261626c653a206f776e657220696e646578206f7560008201527f74206f6620626f756e6473000000000000000000000000000000000000000000602082015250565b7f4552433732313a207472616e7366657220746f206e6f6e20455243373231526560008201527f63656976657220696d706c656d656e7465720000000000000000000000000000602082015250565b7f4552433732313a20746f6b656e20616c7265616479206d696e74656400000000600082015250565b7f436f6c6f7220616c726561647920657869737473210000000000000000000000600082015250565b7f4552433732313a207472616e7366657220746f20746865207a65726f2061646460008201527f7265737300000000000000000000000000000000000000000000000000000000602082015250565b7f4552433732313a20617070726f766520746f2063616c6c657200000000000000600082015250565b7f4552433732313a206f70657261746f7220717565727920666f72206e6f6e657860008201527f697374656e7420746f6b656e0000000000000000000000000000000000000000602082015250565b7f4552433732313a20617070726f76652063616c6c6572206973206e6f74206f7760008201527f6e6572206e6f7220617070726f76656420666f7220616c6c0000000000000000602082015250565b7f4552433732313a2062616c616e636520717565727920666f7220746865207a6560008201527f726f206164647265737300000000000000000000000000000000000000000000602082015250565b7f4552433732313a206f776e657220717565727920666f72206e6f6e657869737460008201527f656e7420746f6b656e0000000000000000000000000000000000000000000000602082015250565b7f4552433732313a206d696e7420746f20746865207a65726f2061646472657373600082015250565b7f4552433732313a20617070726f76656420717565727920666f72206e6f6e657860008201527f697374656e7420746f6b656e0000000000000000000000000000000000000000602082015250565b7f4552433732313a207472616e73666572206f6620746f6b656e2074686174206960008201527f73206e6f74206f776e0000000000000000000000000000000000000000000000602082015250565b7f4552433732314d657461646174613a2055524920717565727920666f72206e6f60008201527f6e6578697374656e7420746f6b656e0000000000000000000000000000000000602082015250565b7f4552433732313a20617070726f76616c20746f2063757272656e74206f776e6560008201527f7200000000000000000000000000000000000000000000000000000000000000602082015250565b7f4552433732313a207472616e736665722063616c6c6572206973206e6f74206f60008201527f776e6572206e6f7220617070726f766564000000000000000000000000000000602082015250565b7f455243373231456e756d657261626c653a20676c6f62616c20696e646578206f60008201527f7574206f6620626f756e64730000000000000000000000000000000000000000602082015250565b61342581612d15565b811461343057600080fd5b50565b61343c81612d27565b811461344757600080fd5b50565b61345381612d33565b811461345e57600080fd5b50565b61346a81612d7f565b811461347557600080fd5b5056fea26469706673582212208eeb2f9f9eb96f80d9615c77e98d89ac15f6608cb67e625a3c0076b58a1c3d3964736f6c63430008040033",
  "immutableReferences": {},
  "source": "// SPDX-License-Identifier: MIT\r\npragma solidity 0.8.4;\r\n\r\nimport \"@openzeppelin/contracts/token/ERC721/extensions/ERC721Enumerable.sol\";\r\nimport \"@openzeppelin/contracts/token/ERC721/ERC721.sol\";\r\n\r\n\r\ncontract Color is ERC721Enumerable  {\r\n    string[] public mintedColors;\r\n    mapping(string => bool) _colorExists;\r\n\r\n    constructor() ERC721 (\"Unique Colors\", \"UCO\") {}\r\n\r\n    function mint(string memory _color) public {\r\n        require(!_colorExists[_color], 'Color already exists!');\r\n\r\n        mintedColors.push(_color);\r\n        uint _id = mintedColors.length - 1;\r\n        _mint(msg.sender, _id);\r\n        _colorExists[_color] = true;\r\n    }\r\n\r\n    function getMintedColors() public view returns (string[] memory) {\r\n        return mintedColors;\r\n    }\r\n}\r\n",
  "sourcePath": "C:/Users/Martin/Documents/martin/informatica/blockchain/my_nft_app/truffle/contracts/Color.sol",
  "compiler": {
    "name": "solc",
    "version": "0.8.4+commit.c7e474f2.Emscripten.clang"
  },
  "schemaVersion": "3.4.0",
  "updatedAt": "2021-05-22T07:10:05.024Z",
  "networkType": "ethereum",
  "devdoc": {
    "kind": "dev",
    "methods": {
      "approve(address,uint256)": {
        "details": "See {IERC721-approve}."
      },
      "balanceOf(address)": {
        "details": "See {IERC721-balanceOf}."
      },
      "getApproved(uint256)": {
        "details": "See {IERC721-getApproved}."
      },
      "isApprovedForAll(address,address)": {
        "details": "See {IERC721-isApprovedForAll}."
      },
      "name()": {
        "details": "See {IERC721Metadata-name}."
      },
      "ownerOf(uint256)": {
        "details": "See {IERC721-ownerOf}."
      },
      "safeTransferFrom(address,address,uint256)": {
        "details": "See {IERC721-safeTransferFrom}."
      },
      "safeTransferFrom(address,address,uint256,bytes)": {
        "details": "See {IERC721-safeTransferFrom}."
      },
      "setApprovalForAll(address,bool)": {
        "details": "See {IERC721-setApprovalForAll}."
      },
      "supportsInterface(bytes4)": {
        "details": "See {IERC165-supportsInterface}."
      },
      "symbol()": {
        "details": "See {IERC721Metadata-symbol}."
      },
      "tokenByIndex(uint256)": {
        "details": "See {IERC721Enumerable-tokenByIndex}."
      },
      "tokenOfOwnerByIndex(address,uint256)": {
        "details": "See {IERC721Enumerable-tokenOfOwnerByIndex}."
      },
      "tokenURI(uint256)": {
        "details": "See {IERC721Metadata-tokenURI}."
      },
      "totalSupply()": {
        "details": "See {IERC721Enumerable-totalSupply}."
      },
      "transferFrom(address,address,uint256)": {
        "details": "See {IERC721-transferFrom}."
      }
    },
    "version": 1
  },
  "userdoc": {
    "kind": "user",
    "methods": {},
    "version": 1
  }
}